{
  "contractName": "InternshipSystem",
  "abi": [
    {
      "inputs": [
        {
          "internalType": "address",
          "name": "_supervisor",
          "type": "address"
        }
      ],
      "stateMutability": "nonpayable",
      "type": "constructor"
    },
    {
      "anonymous": false,
      "inputs": [
        {
          "indexed": false,
          "internalType": "uint256",
          "name": "id",
          "type": "uint256"
        }
      ],
      "name": "CertificateGenerated",
      "type": "event"
    },
    {
      "anonymous": false,
      "inputs": [
        {
          "indexed": false,
          "internalType": "uint256",
          "name": "id",
          "type": "uint256"
        },
        {
          "indexed": false,
          "internalType": "uint256",
          "name": "note",
          "type": "uint256"
        }
      ],
      "name": "NoteAssigned",
      "type": "event"
    },
    {
      "anonymous": false,
      "inputs": [
        {
          "indexed": false,
          "internalType": "uint256",
          "name": "id",
          "type": "uint256"
        }
      ],
      "name": "RapportValidated",
      "type": "event"
    },
    {
      "anonymous": false,
      "inputs": [
        {
          "indexed": false,
          "internalType": "uint256",
          "name": "id",
          "type": "uint256"
        }
      ],
      "name": "StageValidated",
      "type": "event"
    },
    {
      "anonymous": false,
      "inputs": [
        {
          "indexed": false,
          "internalType": "uint256",
          "name": "id",
          "type": "uint256"
        },
        {
          "indexed": false,
          "internalType": "string",
          "name": "name",
          "type": "string"
        }
      ],
      "name": "StudentAdded",
      "type": "event"
    },
    {
      "inputs": [],
      "name": "company",
      "outputs": [
        {
          "internalType": "address",
          "name": "",
          "type": "address"
        }
      ],
      "stateMutability": "view",
      "type": "function"
    },
    {
      "inputs": [],
      "name": "studentCount",
      "outputs": [
        {
          "internalType": "uint256",
          "name": "",
          "type": "uint256"
        }
      ],
      "stateMutability": "view",
      "type": "function"
    },
    {
      "inputs": [
        {
          "internalType": "uint256",
          "name": "",
          "type": "uint256"
        }
      ],
      "name": "students",
      "outputs": [
        {
          "internalType": "uint256",
          "name": "id",
          "type": "uint256"
        },
        {
          "internalType": "string",
          "name": "name",
          "type": "string"
        },
        {
          "internalType": "bool",
          "name": "stageValide",
          "type": "bool"
        },
        {
          "internalType": "bool",
          "name": "rapportValide",
          "type": "bool"
        },
        {
          "internalType": "uint256",
          "name": "note",
          "type": "uint256"
        },
        {
          "internalType": "bool",
          "name": "certificat",
          "type": "bool"
        },
        {
          "internalType": "bool",
          "name": "exists",
          "type": "bool"
        }
      ],
      "stateMutability": "view",
      "type": "function"
    },
    {
      "inputs": [],
      "name": "supervisor",
      "outputs": [
        {
          "internalType": "address",
          "name": "",
          "type": "address"
        }
      ],
      "stateMutability": "view",
      "type": "function"
    },
    {
      "inputs": [
        {
          "internalType": "string",
          "name": "_name",
          "type": "string"
        }
      ],
      "name": "addStudent",
      "outputs": [],
      "stateMutability": "nonpayable",
      "type": "function"
    },
    {
      "inputs": [
        {
          "internalType": "uint256",
          "name": "_id",
          "type": "uint256"
        }
      ],
      "name": "validerStage",
      "outputs": [],
      "stateMutability": "nonpayable",
      "type": "function"
    },
    {
      "inputs": [
        {
          "internalType": "uint256",
          "name": "_id",
          "type": "uint256"
        }
      ],
      "name": "validerRapport",
      "outputs": [],
      "stateMutability": "nonpayable",
      "type": "function"
    },
    {
      "inputs": [
        {
          "internalType": "uint256",
          "name": "_id",
          "type": "uint256"
        },
        {
          "internalType": "uint256",
          "name": "_note",
          "type": "uint256"
        }
      ],
      "name": "attribuerNote",
      "outputs": [],
      "stateMutability": "nonpayable",
      "type": "function"
    },
    {
      "inputs": [
        {
          "internalType": "uint256",
          "name": "_id",
          "type": "uint256"
        }
      ],
      "name": "genererCertificat",
      "outputs": [],
      "stateMutability": "nonpayable",
      "type": "function"
    },
    {
      "inputs": [
        {
          "internalType": "uint256",
          "name": "_id",
          "type": "uint256"
        }
      ],
      "name": "getStudent",
      "outputs": [
        {
          "components": [
            {
              "internalType": "uint256",
              "name": "id",
              "type": "uint256"
            },
            {
              "internalType": "string",
              "name": "name",
              "type": "string"
            },
            {
              "internalType": "bool",
              "name": "stageValide",
              "type": "bool"
            },
            {
              "internalType": "bool",
              "name": "rapportValide",
              "type": "bool"
            },
            {
              "internalType": "uint256",
              "name": "note",
              "type": "uint256"
            },
            {
              "internalType": "bool",
              "name": "certificat",
              "type": "bool"
            },
            {
              "internalType": "bool",
              "name": "exists",
              "type": "bool"
            }
          ],
          "internalType": "struct InternshipSystem.Student",
          "name": "",
          "type": "tuple"
        }
      ],
      "stateMutability": "view",
      "type": "function"
    }
  ],
  "bytecode": "0x608060405234801562000010575f80fd5b5060405162001a1938038062001a19833981810160405281019062000036919062000121565b335f806101000a81548173ffffffffffffffffffffffffffffffffffffffff021916908373ffffffffffffffffffffffffffffffffffffffff1602179055508060015f6101000a81548173ffffffffffffffffffffffffffffffffffffffff021916908373ffffffffffffffffffffffffffffffffffffffff1602179055505062000151565b5f80fd5b5f73ffffffffffffffffffffffffffffffffffffffff82169050919050565b5f620000eb82620000c0565b9050919050565b620000fd81620000df565b811462000108575f80fd5b50565b5f815190506200011b81620000f2565b92915050565b5f60208284031215620001395762000138620000bc565b5b5f62000148848285016200010b565b91505092915050565b6118ba806200015f5f395ff3fe608060405234801561000f575f80fd5b506004361061009c575f3560e01c8063642f916311610064578063642f9163146101485780636904c94d14610178578063b0aadc0714610196578063c7a2d442146101b2578063e581f9ee146101ce5761009c565b806306ead22e146100a057806316f682a9146100d6578063453e056a146100f2578063565412681461010e57806356e4b68b1461012a575b5f80fd5b6100ba60048036038101906100b59190610d3b565b6101ec565b6040516100cd9796959493929190610e19565b60405180910390f35b6100f060048036038101906100eb9190610e8d565b6102e2565b005b61010c60048036038101906101079190610ff7565b61046c565b005b61012860048036038101906101239190610d3b565b610648565b005b61013261079c565b60405161013f919061107d565b60405180910390f35b610162600480360381019061015d9190610d3b565b6107c1565b60405161016f9190611195565b60405180910390f35b61018061095a565b60405161018d919061107d565b60405180910390f35b6101b060048036038101906101ab9190610d3b565b61097d565b005b6101cc60048036038101906101c79190610d3b565b610ad4565b005b6101d6610cb2565b6040516101e391906111b5565b60405180910390f35b6003602052805f5260405f205f91509050805f015490806001018054610211906111fb565b80601f016020809104026020016040519081016040528092919081815260200182805461023d906111fb565b80156102885780601f1061025f57610100808354040283529160200191610288565b820191905f5260205f20905b81548152906001019060200180831161026b57829003601f168201915b505050505090806002015f9054906101000a900460ff16908060020160019054906101000a900460ff1690806003015490806004015f9054906101000a900460ff16908060040160019054906101000a900460ff16905087565b60015f9054906101000a900473ffffffffffffffffffffffffffffffffffffffff1673ffffffffffffffffffffffffffffffffffffffff163373ffffffffffffffffffffffffffffffffffffffff1614610371576040517f08c379a00000000000000000000000000000000000000000000000000000000081526004016103689061129b565b60405180910390fd5b60035f8381526020019081526020015f2060040160019054906101000a900460ff166103d2576040517f08c379a00000000000000000000000000000000000000000000000000000000081526004016103c990611303565b60405180910390fd5b6014811115610416576040517f08c379a000000000000000000000000000000000000000000000000000000000815260040161040d9061136b565b60405180910390fd5b8060035f8481526020019081526020015f20600301819055507f425cde21d4988bc3e880ff9062dcf480c55d4bc2f1ecea0938f75121bf600e578282604051610460929190611389565b60405180910390a15050565b5f8054906101000a900473ffffffffffffffffffffffffffffffffffffffff1673ffffffffffffffffffffffffffffffffffffffff163373ffffffffffffffffffffffffffffffffffffffff16146104f9576040517f08c379a00000000000000000000000000000000000000000000000000000000081526004016104f090611420565b60405180910390fd5b60025f81548092919061050b9061146b565b91905055506040518060e0016040528060025481526020018281526020015f151581526020015f151581526020015f81526020015f151581526020016001151581525060035f60025481526020019081526020015f205f820151815f0155602082015181600101908161057e919061164f565b506040820151816002015f6101000a81548160ff02191690831515021790555060608201518160020160016101000a81548160ff0219169083151502179055506080820151816003015560a0820151816004015f6101000a81548160ff02191690831515021790555060c08201518160040160016101000a81548160ff0219169083151502179055509050507f9682c9a3e9734a1f8d3a641838a5d7862f4eb29fcbf4bd04e0ccac28ffcfd2276002548260405161063d92919061171e565b60405180910390a150565b5f8054906101000a900473ffffffffffffffffffffffffffffffffffffffff1673ffffffffffffffffffffffffffffffffffffffff163373ffffffffffffffffffffffffffffffffffffffff16146106d5576040517f08c379a00000000000000000000000000000000000000000000000000000000081526004016106cc90611420565b60405180910390fd5b60035f8281526020019081526020015f2060040160019054906101000a900460ff16610736576040517f08c379a000000000000000000000000000000000000000000000000000000000815260040161072d90611303565b60405180910390fd5b600160035f8381526020019081526020015f206002015f6101000a81548160ff0219169083151502179055507f2629964a7bc18ecc6f6262d8b5e1f8f44870a3d8556043f5fa5e67248a63fb058160405161079191906111b5565b60405180910390a150565b60015f9054906101000a900473ffffffffffffffffffffffffffffffffffffffff1681565b6107c9610cb8565b60035f8381526020019081526020015f2060040160019054906101000a900460ff1661082a576040517f08c379a000000000000000000000000000000000000000000000000000000000815260040161082190611303565b60405180910390fd5b60035f8381526020019081526020015f206040518060e00160405290815f820154815260200160018201805461085f906111fb565b80601f016020809104026020016040519081016040528092919081815260200182805461088b906111fb565b80156108d65780601f106108ad576101008083540402835291602001916108d6565b820191905f5260205f20905b8154815290600101906020018083116108b957829003601f168201915b50505050508152602001600282015f9054906101000a900460ff161515151581526020016002820160019054906101000a900460ff1615151515815260200160038201548152602001600482015f9054906101000a900460ff161515151581526020016004820160019054906101000a900460ff1615151515815250509050919050565b5f8054906101000a900473ffffffffffffffffffffffffffffffffffffffff1681565b60015f9054906101000a900473ffffffffffffffffffffffffffffffffffffffff1673ffffffffffffffffffffffffffffffffffffffff163373ffffffffffffffffffffffffffffffffffffffff1614610a0c576040517f08c379a0000000000000000000000000000000000000000000000000000000008152600401610a039061129b565b60405180910390fd5b60035f8281526020019081526020015f2060040160019054906101000a900460ff16610a6d576040517f08c379a0000000000000000000000000000000000000000000000000000000008152600401610a6490611303565b60405180910390fd5b600160035f8381526020019081526020015f2060020160016101000a81548160ff0219169083151502179055507fdd8898f4cdf46be7d12016c49a839ae6d0cefc69063202f1bef58c61d7fdcf1681604051610ac991906111b5565b60405180910390a150565b60035f8281526020019081526020015f2060040160019054906101000a900460ff16610b35576040517f08c379a0000000000000000000000000000000000000000000000000000000008152600401610b2c90611303565b60405180910390fd5b60035f8281526020019081526020015f206002015f9054906101000a900460ff16610b95576040517f08c379a0000000000000000000000000000000000000000000000000000000008152600401610b8c90611796565b60405180910390fd5b60035f8281526020019081526020015f2060020160019054906101000a900460ff16610bf6576040517f08c379a0000000000000000000000000000000000000000000000000000000008152600401610bed906117fe565b60405180910390fd5b5f60035f8381526020019081526020015f206003015411610c4c576040517f08c379a0000000000000000000000000000000000000000000000000000000008152600401610c4390611866565b60405180910390fd5b600160035f8381526020019081526020015f206004015f6101000a81548160ff0219169083151502179055507f8878a03275df2786594463c72660b55ebee22b78c4a293bb14dccf246494dcab81604051610ca791906111b5565b60405180910390a150565b60025481565b6040518060e001604052805f8152602001606081526020015f151581526020015f151581526020015f81526020015f151581526020015f151581525090565b5f604051905090565b5f80fd5b5f80fd5b5f819050919050565b610d1a81610d08565b8114610d24575f80fd5b50565b5f81359050610d3581610d11565b92915050565b5f60208284031215610d5057610d4f610d00565b5b5f610d5d84828501610d27565b91505092915050565b610d6f81610d08565b82525050565b5f81519050919050565b5f82825260208201905092915050565b5f5b83811015610dac578082015181840152602081019050610d91565b5f8484015250505050565b5f601f19601f8301169050919050565b5f610dd182610d75565b610ddb8185610d7f565b9350610deb818560208601610d8f565b610df481610db7565b840191505092915050565b5f8115159050919050565b610e1381610dff565b82525050565b5f60e082019050610e2c5f83018a610d66565b8181036020830152610e3e8189610dc7565b9050610e4d6040830188610e0a565b610e5a6060830187610e0a565b610e676080830186610d66565b610e7460a0830185610e0a565b610e8160c0830184610e0a565b98975050505050505050565b5f8060408385031215610ea357610ea2610d00565b5b5f610eb085828601610d27565b9250506020610ec185828601610d27565b9150509250929050565b5f80fd5b5f80fd5b7f4e487b71000000000000000000000000000000000000000000000000000000005f52604160045260245ffd5b610f0982610db7565b810181811067ffffffffffffffff82111715610f2857610f27610ed3565b5b80604052505050565b5f610f3a610cf7565b9050610f468282610f00565b919050565b5f67ffffffffffffffff821115610f6557610f64610ed3565b5b610f6e82610db7565b9050602081019050919050565b828183375f83830152505050565b5f610f9b610f9684610f4b565b610f31565b905082815260208101848484011115610fb757610fb6610ecf565b5b610fc2848285610f7b565b509392505050565b5f82601f830112610fde57610fdd610ecb565b5b8135610fee848260208601610f89565b91505092915050565b5f6020828403121561100c5761100b610d00565b5b5f82013567ffffffffffffffff81111561102957611028610d04565b5b61103584828501610fca565b91505092915050565b5f73ffffffffffffffffffffffffffffffffffffffff82169050919050565b5f6110678261103e565b9050919050565b6110778161105d565b82525050565b5f6020820190506110905f83018461106e565b92915050565b61109f81610d08565b82525050565b5f82825260208201905092915050565b5f6110bf82610d75565b6110c981856110a5565b93506110d9818560208601610d8f565b6110e281610db7565b840191505092915050565b6110f681610dff565b82525050565b5f60e083015f8301516111115f860182611096565b506020830151848203602086015261112982826110b5565b915050604083015161113e60408601826110ed565b50606083015161115160608601826110ed565b5060808301516111646080860182611096565b5060a083015161117760a08601826110ed565b5060c083015161118a60c08601826110ed565b508091505092915050565b5f6020820190508181035f8301526111ad81846110fc565b905092915050565b5f6020820190506111c85f830184610d66565b92915050565b7f4e487b71000000000000000000000000000000000000000000000000000000005f52602260045260245ffd5b5f600282049050600182168061121257607f821691505b602082108103611225576112246111ce565b5b50919050565b7f4f6e6c792073757065727669736f722063616e20706572666f726d20746869735f8201527f20616374696f6e00000000000000000000000000000000000000000000000000602082015250565b5f611285602783610d7f565b91506112908261122b565b604082019050919050565b5f6020820190508181035f8301526112b281611279565b9050919050565b7f53747564656e7420646f6573206e6f74206578697374000000000000000000005f82015250565b5f6112ed601683610d7f565b91506112f8826112b9565b602082019050919050565b5f6020820190508181035f83015261131a816112e1565b9050919050565b7f4e6f7465206d757374206265206265747765656e203020616e642032300000005f82015250565b5f611355601d83610d7f565b915061136082611321565b602082019050919050565b5f6020820190508181035f83015261138281611349565b9050919050565b5f60408201905061139c5f830185610d66565b6113a96020830184610d66565b9392505050565b7f4f6e6c7920636f6d70616e792063616e20706572666f726d20746869732061635f8201527f74696f6e00000000000000000000000000000000000000000000000000000000602082015250565b5f61140a602483610d7f565b9150611415826113b0565b604082019050919050565b5f6020820190508181035f830152611437816113fe565b9050919050565b7f4e487b71000000000000000000000000000000000000000000000000000000005f52601160045260245ffd5b5f61147582610d08565b91507fffffffffffffffffffffffffffffffffffffffffffffffffffffffffffffffff82036114a7576114a661143e565b5b600182019050919050565b5f819050815f5260205f209050919050565b5f6020601f8301049050919050565b5f82821b905092915050565b5f6008830261150e7fffffffffffffffffffffffffffffffffffffffffffffffffffffffffffffffff826114d3565b61151886836114d3565b95508019841693508086168417925050509392505050565b5f819050919050565b5f61155361154e61154984610d08565b611530565b610d08565b9050919050565b5f819050919050565b61156c83611539565b6115806115788261155a565b8484546114df565b825550505050565b5f90565b611594611588565b61159f818484611563565b505050565b5b818110156115c2576115b75f8261158c565b6001810190506115a5565b5050565b601f821115611607576115d8816114b2565b6115e1846114c4565b810160208510156115f0578190505b6116046115fc856114c4565b8301826115a4565b50505b505050565b5f82821c905092915050565b5f6116275f198460080261160c565b1980831691505092915050565b5f61163f8383611618565b9150826002028217905092915050565b61165882610d75565b67ffffffffffffffff81111561167157611670610ed3565b5b61167b82546111fb565b6116868282856115c6565b5f60209050601f8311600181146116b7575f84156116a5578287015190505b6116af8582611634565b865550611716565b601f1984166116c5866114b2565b5f5b828110156116ec578489015182556001820191506020850194506020810190506116c7565b868310156117095784890151611705601f891682611618565b8355505b6001600288020188555050505b505050505050565b5f6040820190506117315f830185610d66565b81810360208301526117438184610dc7565b90509392505050565b7f496e7465726e73686970206e6f742076616c69646174656400000000000000005f82015250565b5f611780601883610d7f565b915061178b8261174c565b602082019050919050565b5f6020820190508181035f8301526117ad81611774565b9050919050565b7f5265706f7274206e6f742076616c6964617465640000000000000000000000005f82015250565b5f6117e8601483610d7f565b91506117f3826117b4565b602082019050919050565b5f6020820190508181035f830152611815816117dc565b9050919050565b7f4e6f7465206e6f742061737369676e65640000000000000000000000000000005f82015250565b5f611850601183610d7f565b915061185b8261181c565b602082019050919050565b5f6020820190508181035f83015261187d81611844565b905091905056fea264697066735822122072d7decf2fb903753f82e7cbf4ecc765e61a16f292730765b0019b219ecfc85364736f6c63430008140033",
  "immutableReferences": {},
  "source": "// SPDX-License-Identifier: MIT\npragma solidity ^0.8.0;\n\ncontract InternshipSystem {\n    struct Student {\n        uint id;\n        string name;\n        bool stageValide;\n        bool rapportValide;\n        uint note;\n        bool certificat;\n        bool exists;\n    }\n\n    address public company;\n    address public supervisor;\n    uint public studentCount;\n\n    mapping(uint => Student) public students;\n\n    event StudentAdded(uint id, string name);\n    event StageValidated(uint id);\n    event RapportValidated(uint id);\n    event NoteAssigned(uint id, uint note);\n    event CertificateGenerated(uint id);\n\n    modifier onlyCompany() {\n        require(msg.sender == company, \"Only company can perform this action\");\n        _;\n    }\n\n    modifier onlySupervisor() {\n        require(msg.sender == supervisor, \"Only supervisor can perform this action\");\n        _;\n    }\n\n    constructor(address _supervisor) {\n        company = msg.sender;\n        supervisor = _supervisor;\n    }\n\n    function addStudent(string memory _name) public onlyCompany {\n        studentCount++;\n        students[studentCount] = Student(studentCount, _name, false, false, 0, false, true);\n        emit StudentAdded(studentCount, _name);\n    }\n\n    function validerStage(uint _id) public onlyCompany {\n        require(students[_id].exists, \"Student does not exist\");\n        students[_id].stageValide = true;\n        emit StageValidated(_id);\n    }\n\n    function validerRapport(uint _id) public onlySupervisor {\n        require(students[_id].exists, \"Student does not exist\");\n        students[_id].rapportValide = true;\n        emit RapportValidated(_id);\n    }\n\n    function attribuerNote(uint _id, uint _note) public onlySupervisor {\n        require(students[_id].exists, \"Student does not exist\");\n        require(_note <= 20, \"Note must be between 0 and 20\");\n        students[_id].note = _note;\n        emit NoteAssigned(_id, _note);\n    }\n\n    function genererCertificat(uint _id) public {\n        require(students[_id].exists, \"Student does not exist\");\n        require(students[_id].stageValide, \"Internship not validated\");\n        require(students[_id].rapportValide, \"Report not validated\");\n        require(students[_id].note > 0, \"Note not assigned\");\n        \n        students[_id].certificat = true;\n        emit CertificateGenerated(_id);\n    }\n\n    function getStudent(uint _id) public view returns (Student memory) {\n        require(students[_id].exists, \"Student does not exist\");\n        return students[_id];\n    }\n}\n",
  "sourcePath": "C:\\Users\\BADR\\Documents\\GitHub\\security_ai\\contracts\\InternshipSystem.sol",
  "compiler": {
    "name": "solc",
    "version": "0.8.20+commit.a1b79de6.Emscripten.clang"
  },
  "schemaVersion": "3.4.16",
  "updatedAt": "2026-03-25T00:14:38.073Z",
  "devdoc": {
    "kind": "dev",
    "methods": {},
    "version": 1
  },
  "userdoc": {
    "kind": "user",
    "methods": {},
    "version": 1
  }
}